:0300000002027386
:0C027300787FE4F6D8FD75811B020107BE
:10024800C0F9A4B0999282F880908883C6A1868E5E
:080258007FBFDFEFF7FBFDFEA5
:04022400E493F5A0CA
:10022800E4FDFCC3ED9FEC9E5015E4FBFA0BBB000C
:0F023800010AEB64794A70F50DBD00010C80E4FA
:010247002294
:10000E00AE08AF097C007D0A1201CF8C0E8D0FAEAB
:10001E0008AF097C007D0A1201CF8E108F11AE0A37
:10002E00AF0B7C007D0A1201CF8C188D19AE0AAF72
:10003E000B7C007D0A1201CF8E168F17AE0CAF0D02
:10004E007C007D0A1201CF8C148D15AE0CAF0D7C89
:10005E00007D0A1201CF8E128F137448250FF58280
:10006E007402350EF583E493F58090025FE493F508
:10007E00A07F017E0012022875A0FF74482511F59D
:10008E008274023510F583E493F58090025E1202BD
:10009E002475A0FF74482519F58274023518F5836E
:1000AE00E493F58090025D12022475A0FF7448253A
:1000BE0017F58274023516F583E493F58090025C91
:1000CE0012022475A0FF74482515F58274023514AA
:1000DE00F583E493F58090025B12022475A0FF7401
:1000EE00482513F58274023512F583E493F580905A
:0900FE00025A12022475A0FF222F
:10010700D28CD2AF758901D2A9758C3C758AAF1292
:10011700000E209104D28C805B209204C28C805404
:1001270020930FE4F508F509F50AF50BF50CF50D25
:100137008042208C132094100509E50970020508F8
:1001470020943112000E80F8208C13209510050B97
:10015700E50B7002050A20951B12000E80F8208C13
:1001670013209610050DE50D7002050C209605125B
:10017700000E80F8E51B6414451A700EF51AF51B7E
:100187000509E509703C05088038E509643C450820
:10019700700EF508F509050BE50B7026050A802298
:1001A700E50B643C450A700EF50AF50B050DE50DE8
:1001B7007010050C800CE50D6418450C7004F50CE7
:0801C700F50D12000E020116F5
:03000B000202608E
:10026000C0E0051BE51B7002051A758C3C758AAF52
:03027000D0E032A9
:1001CF00BC000BBE0029EF8DF084FFADF022E4CC14
:1001DF00F875F008EF2FFFEE33FEEC33FCEE9DECDD
:1001EF00984005FCEE9DFE0FD5F0E9E4CEFD22ED23
:1001FF00F8F5F0EE8420D21CFEADF075F008EF2F6D
:10020F00FFED33FD4007985006D5F0F222C398FD5D
:05021F000FD5F0EA22FA
:00000001FF
