:03000000020A4DA4
:0C0A4D00787FE4F6D8FD75811B0208F9E3
:100A2200C0F9A4B0999282F880908883C6A1868E7C
:080A32007FBFDFEFF7FBFDFEC3
:0409FE00E493F5A0E9
:100A0200E4FDFCC3ED9FEC9E5015E4FBFA0BBB002A
:0F0A1200010AEB64794A70F50DBD00010C80E418
:010A210022B2
:10080000AE0AAF0B7C007D0A1209A98C168D17AEBB
:100810000AAF0B7C007D0A1209A98E128F13AE104D
:10082000AF117C007D0A1209A98C0E8D0FAE10AF9E
:10083000117C007D0A1209A98E0C8F0DAE1AAF1B18
:100840007C007D0A1209A98C148D15AE1AAF1B7C91
:10085000007D0A1209A98E088F0974222517F582D6
:10086000740A3516F583E493F580900A39E493F51C
:10087000A07F017E00120A0275A0FF74222513F5E5
:1008800082740A3512F583E493F580900A381209D0
:10089000FE75A0FF7422250FF582740A350EF583CC
:1008A000E493F580900A371209FE75A0FF742225A3
:1008B0000DF582740A350CF583E493F580900A36C1
:1008C0001209FE75A0FF74222515F582740A3514ED
:1008D000F583E493F580900A351209FE75A0FF7444
:1008E000222509F582740A3508F583E493F5809092
:0908F0000A341209FE75A0FF2272
:1008F900D2AF758901D2A9758C3C758AAF120800EF
:10090900209104D28C8045209204C28C803E209391
:100919000FE4F50AF50BF510F511F51AF51B802C06
:10092900208C132094100511E511700205102094F4
:100939001B12080080F8208C13209510051BE51B5D
:100949007002051A20950512080080F8E51964144B
:100959004518700EF518F519050BE50B703C050ADD
:100969008038E50B643C450A700EF50AF50B051154
:10097900E511702605108022E511643C4510700EC2
:10098900F510F511051BE51B7010051A800CE51B08
:100999006418451A7004F51AF51B120800020906B5
:03000B00020A3AAC
:100A3A00C0E00519E51970020518758C3C758AAF76
:030A4A00D0E032C7
:1009A900BC000BBE0029EF8DF084FFADF022E4CC32
:1009B900F875F008EF2FFFEE33FEEC33FCEE9DECFB
:1009C900984005FCEE9DFE0FD5F0E9E4CEFD22ED41
:1009D900F8F5F0EE8420D21CFEADF075F008EF2F8B
:1009E900FFED33FD4007985006D5F0F222C398FD7C
:0509F9000FD5F0EA2219
:00000001FF
